:1000000020C03AC039C038C037C0B4C035C034C0D1
:1000100033C032C031C030C02FC02EC02DC001024D
:100020000000040001020408102002020202020281
:100030000000000036000000000038000000000052
:10004000370011241FBECFE5D2E0DEBFCDBF10E0E8
:10005000A0E6B0E0ECEBF4E002C005900D92A8360B
:10006000B107D9F720E0A8E6B0E001C01D92A237A1
:10007000B207E1F76AD020C2C3CF81E09091680057
:10008000911180E0809368000895CF93DF93C2E6DA
:10009000D0E061E0888141D160E088818DD1C4E603
:1000A000D0E061E0888139D160E0888185D162E06B
:1000B0008091600032D160E080916600DF91CF9145
:1000C0002CC180916000BDD1892B31F4D6DF68EE60
:1000D00073E080E090E0BFD0809168008130B1F49F
:1000E00060E08091620068D161E08091640064D139
:1000F00064E670E080E090E0AED060E08091640063
:100100005BD164E670E080E090E0A5D0809168006B
:1001100081111AC08091660094D1019769F461E061
:100120008091620049D161E08091640045D160E234
:100130007EE480E090E08FC060E0809162003CD17E
:1001400060E08091640038C1089581B781BFADD06F
:100150009CDFB7DFFECF80B7807F80BF80B780682D
:1001600080BF8CB580648CBD8FEF8DBD80B78760FC
:1001700080BF08951F920F920FB60F9211242F93F4
:100180003F938F939F93AF93BF9380916A00909119
:100190006B00A0916C00B0916D003091690026E079
:1001A000230F2D3730F029E8230F0396A11DB11D31
:1001B00003C00296A11DB11D2093690080936A00BF
:1001C00090936B00A0936C00B0936D0080916E00D3
:1001D00090916F00A0917000B09171000196A11DE7
:1001E000B11D80936E0090936F00A0937000B09348
:1001F0007100BF91AF919F918F913F912F910F907F
:100200000FBE0F901F9018953FB7F89480916E0025
:1002100090916F00A0917000B091710022B708B664
:1002200001FE05C02F3F19F00196A11DB11D3FBF72
:10023000BA2FA92F982F8827820F911DA11DB11DBC
:10024000BC01CD0143E0660F771F881F991F4A95B7
:10025000D1F708950895CF92DF92EF92FF92CF9356
:10026000DF936B017C01D0DFEB01C114D104E10409
:10027000F104A1F0EFDFC8DF6C1B7D0B683E73401B
:10028000A0F3C114D104E104F10479F381E0C81AA8
:10029000D108E108F108C851DC4FEDCFDF91CF91D3
:1002A000FF90EF90DF90CF9008958AB582608ABD6D
:1002B0008AB581608ABD83B7887F836083BF789465
:1002C00089B7826089BF47DF86B18877866886B93B
:1002D000379A0895813031F48AB58F778ABD8AB50F
:1002E0008F7B07C0823039F48AB58F7D8ABD8AB58D
:1002F0008F7E8ABD0895833039F480B78F7D80BFAB
:1003000080B78F7E80BF0895843031F48CB58F7DA7
:100310008CBD8CB58F7E8CBD0895CF93DF9387FF06
:1003200011C08F7741F0813041F0823041F083304D
:1003300041F08FEF07C085E005C082E003C084E094
:1003400001C083E090E0FC01EC5DFF4F2491FC01D3
:10035000E65DFF4F8491882361F190E0880F991F3B
:10036000FC01E45CFF4FC591D491FC01EA5CFF4FB6
:10037000A591B491611109C09FB7F8948881209527
:1003800082238883EC912E230BC0623061F49FB7E7
:10039000F8948881322F309583238883EC912E2B1B
:1003A0002C939FBF06C08FB7F894E8812E2B28832B
:1003B0008FBFDF91CF9108951F93CF93DF93162FB7
:1003C00087FF11C08F7741F0813041F0823041F0DA
:1003D000833041F08FEF07C085E005C082E003C0A5
:1003E00084E001C083E0282F30E0F901E25EFF4F96
:1003F0008491F901EC5DFF4FD491F901E65DFF4F67
:10040000C491CC23D1F0811165DFEC2FF0E0EE0F29
:10041000FF1FEA5CFF4FA591B491111108C09FB76F
:10042000F8948C91D095D823DC939FBF06C08FB7EA
:10043000F894EC91DE2BDC938FBFDF91CF911F916D
:100440000895CF93DF9387FF11C08F7741F08130FC
:1004500041F0823041F0833041F08FEF07C085E0FA
:1004600005C082E003C084E001C083E0282F30E0B3
:10047000F901E25EFF4F8491F901EC5DFF4FD491E9
:10048000F901E65DFF4FC491CC2389F0811122DF91
:10049000EC2FF0E0EE0FFF1FE05DFF4FA591B49150
:1004A000EC91ED2381E090E021F480E002C080E057
:0C04B00090E0DF91CF910895F894FFCF09
:0804BC0004000100030002002E
:00000001FF
