:1000000020C03AC039C038C037C06EC035C034C017
:1000100033C032C031C030C02FC02EC02DC001024D
:100020000000040001020408102002020202020281
:100030000000000036000000000038000000000052
:10004000370011241FBECFE5D2E0DEBFCDBF10E0E8
:10005000A0E6B0E0E0E3F4E002C005900D92A23625
:10006000B107D9F720E0A2E6B0E001C01D92AD369D
:10007000B207E1F724D0DAC1C3CFCF93DF93C2E652
:10008000D0E061E0888103D161E088814FD160E0F8
:1000900080916000DF91CF91FAC0809160008BD198
:1000A000019749F460E08091620040D160E67AEE09
:1000B00080E090E08AC061E08091620037C181B742
:1000C00081BFADD0DADFE9DFFECF80B7807F80BFB0
:1000D00080B7806880BF8CB580648CBD8FEF8DBD8C
:1000E00080B7876080BF08951F920F920FB60F925E
:1000F00011242F933F938F939F93AF93BF9380913E
:10010000650090916600A0916700B0916800309101
:10011000640026E0230F2D3730F029E8230F0396E3
:10012000A11DB11D03C00296A11DB11D2093640045
:100130008093650090936600A0936700B093680079
:100140008091690090916A00A0916B00B0916C0061
:100150000196A11DB11D8093690090936A00A09340
:100160006B00B0936C00BF91AF919F918F913F91C5
:100170002F910F900FBE0F901F9018953FB7F894D6
:100180008091690090916A00A0916B00B0916C0021
:1001900022B708B601FE05C02F3F19F00196A11D38
:1001A000B11D3FBFBA2FA92F982F8827820F911D0D
:1001B000A11DB11DBC01CD0143E0660F771F881F53
:1001C000991F4A95D1F708950895CF92DF92EF9243
:1001D000FF92CF93DF936B017C01D0DFEB01C11461
:1001E000D104E104F104A1F0EFDFC8DF6C1B7D0B4B
:1001F000683E7340A0F3C114D104E104F10479F323
:1002000081E0C81AD108E108F108C851DC4FEDCFF0
:10021000DF91CF91FF90EF90DF90CF9008958AB556
:1002200082608ABD8AB581608ABD83B7887F83601A
:1002300083BF789489B7826089BF47DF86B18877AA
:10024000866886B9379A0895813031F48AB58F77F8
:100250008ABD8AB58F7B07C0823039F48AB58F7D1D
:100260008ABD8AB58F7E8ABD0895833039F480B700
:100270008F7D80BF80B78F7E80BF0895843031F43A
:100280008CB58F7D8CBD8CB58F7E8CBD0895CF9342
:10029000DF9387FF11C08F7741F0813041F08230CA
:1002A00041F0833041F08FEF07C085E005C082E068
:1002B00003C084E001C083E090E0FC01EC5DFF4FEF
:1002C0002491FC01E65DFF4F8491882361F190E069
:1002D000880F991FFC01E45CFF4FC591D491FC018C
:1002E000EA5CFF4FA591B491611109C09FB7F894E2
:1002F0008881209582238883EC912E230BC0623065
:1003000061F49FB7F8948881322F309583238883D6
:10031000EC912E2B2C939FBF06C08FB7F894E881E9
:100320002E2B28838FBFDF91CF9108951F93CF93FA
:10033000DF93162F87FF11C08F7741F0813041F096
:10034000823041F0833041F08FEF07C085E005C077
:1003500082E003C084E001C083E0282F30E0F9018F
:10036000E25EFF4F8491F901EC5DFF4FD491F901FA
:10037000E65DFF4FC491CC23D1F0811165DFEC2FF6
:10038000F0E0EE0FFF1FEA5CFF4FA591B491111151
:1003900008C09FB7F8948C91D095D823DC939FBF69
:1003A00006C08FB7F894EC91DE2BDC938FBFDF9102
:1003B000CF911F910895CF93DF9387FF11C08F775F
:1003C00041F0813041F0823041F0833041F08FEFD5
:1003D00007C085E005C082E003C084E001C083E07F
:1003E000282F30E0F901E25EFF4F8491F901EC5DC6
:1003F000FF4FD491F901E65DFF4FC491CC2389F002
:10040000811122DFEC2FF0E0EE0FFF1FE05DFF4FC8
:10041000A591B491EC91ED2381E090E021F480E08E
:1004200002C080E090E0DF91CF910895F894FFCF73
:020430000200C8
:00000001FF
