:100000003FC059C058C057C056C055C054C053C057
:1000100052C02BC150C04FC04EC04DC04CC04BC091
:100020004AC049C048C0000000003600330030001C
:1000300000000000370034003100000000003800EC
:100040003500320004040404040404040202020221
:10005000020203030303030301020408102040808B
:100060000102040810200102040810200000000012
:100070000000000000030406000000000000000073
:1000800011241FBECFE5D4E0DEBFCDBF10E0A0E657
:10009000B0E0EEECF9E002C005900D92A236B10797
:1000A000D9F720E0A2E6B0E001C01D92AC36B2075D
:1000B000E1F76AD18AC4A4CF843039F0863049F0A0
:1000C000833051F48FB58F7702C08FB58F7D8FBD90
:1000D000089585B58F7D85BD08951F93CF93DF93D8
:1000E000282F30E0F901E459FF4F8491F901E85AD3
:1000F000FF4FD491F901EC5BFF4FC491CC23B9F0D1
:10010000162F8111D9DFEC2FF0E0EE0FFF1FE65C18
:10011000FF4FA591B4919FB7F894111104C08C9131
:10012000D095D82302C0EC91DE2BDC939FBFDF91EA
:10013000CF911F910895CF93DF9390E0FC01E85A8F
:10014000FF4F2491FC01EC5BFF4F8491882361F108
:1001500090E0880F991FFC01E05DFF4FC591D4919D
:10016000FC01E65CFF4FA591B491611109C09FB7F6
:10017000F8948881209582238883EC912E230BC0EC
:10018000623061F49FB7F8948881322F30958323D1
:100190008883EC912E2B2C939FBF06C08FB7F894C9
:1001A000E8812E2B28838FBFDF91CF9108953FB731
:1001B000F8948091680090916900A0916A00B091D4
:1001C0006B0022B708B600FE05C02F3F19F001965C
:1001D000A11DB11D3FBFBA2FA92F982F8827820FCD
:1001E000911DA11DB11DBC01CD0142E0660F771F1D
:1001F000881F991F4A95D1F708958F929F92AF92C9
:10020000BF92CF92DF92EF92FF926B017C01CFDF22
:100210004B015C01C114D104E104F104E9F0C7DF32
:10022000DC01CB0188199909AA09BB09883E9340D2
:10023000A105B10578F321E0C21AD108E108F1085F
:1002400088EE880E83E0981EA11CB11CC114D10455
:10025000E104F10421F7DECFFF90EF90DF90CF9023
:10026000BF90AF909F908F9008951F920F920FB6FE
:100270000F9211242F933F938F939F93AF93BF932C
:100280008091640090916500A0916600B091670034
:100290003091630023E0230F2D3720F40196A11D38
:1002A000B11D05C026E8230F0296A11DB11D2093A4
:1002B00063008093640090936500A0936600B09300
:1002C00067008091680090916900A0916A00B091E8
:1002D0006B000196A11DB11D809368009093690089
:1002E000A0936A00B0936B00BF91AF919F918F91E3
:1002F0003F912F910F900FBE0F901F901895CF92A6
:10030000DF92EF92FF920F931F93E82FF92F05C012
:10031000015011092109310961F190819623941747
:10032000B9F305C0015011092109310911F190817A
:1003300096239413F7CFC12CD12CE12CF12C0AC0B9
:100340008FEFC81AD80AE80AF80A0C151D052E0501
:100350003F0579F080818623841791F36C2D7D2DE4
:100360008E2D9F2D1F910F91FF90EF90DF90CF90DA
:10037000089560E070E080E090E01F910F91FF90A1
:10038000EF90DF90CF900895789483B7826083BF19
:1003900083B7816083BF89B7816089BF1EBC8EB57A
:1003A00082608EBD8EB581608EBD8FB581608FBD40
:1003B00085B5846085BD85B5806485BD329A319AE6
:1003C000309A379A1AB861E080E1B5DE60E080E1EA
:1003D00084DE61E08AE0AFDE60E08AE07EDE62E03B
:1003E00082E0A9DE60E084E0A6DE61E083E0A3DED7
:1003F00060E08EE0A0DE3EEF832E33E0932EA12C52
:10040000B12C43E0E42EF12C53E2C52ED12CC1E0F7
:10041000D0E420E0222E20E0322EEEE6F0E08491BF
:10042000EAE5F0E07490E6E4F0E06490662009F418
:10043000C0C0811141DEE62DF0E0EE0FFF1FEA5D46
:10044000FF4FA591B4918C91782209F4B2C08091AC
:1004500062008823A1F160E080E13FDE61E08AE094
:100460003CDE64E670E080E090E0C7DE60E08AE0B9
:1004700034DE64E670E080E090E0BFDED7B9369A03
:100480003699FECF24B185B130E0382BC901330F46
:10049000AA0BBB0B9C01AD01215031094109510947
:1004A000A4E1B0E0ADD0A50194018ED0DA01C9017C
:1004B0000596A11DB11D909361008093600060E0DE
:1004C00083E00BDEC7010197F1F761E083E005DE11
:1004D000C6010197F1F760E083E0FFDDECE5F0E0B5
:1004E0006491E8E4F0E08491E82FF0E0EE0FFF1F64
:1004F000EA5DFF4F8591949100E412E42FE030E033
:10050000462FFDDE611571058105910549F0DC017D
:10051000CB010196A11DB11DBC01CD019F7003C08F
:1005200060E070E0CB013CD120E030E048E652E4EE
:10053000A3D020E030E048EC52E4E4D105D180E0E3
:1005400090E02ED12B013C0166E970E080E090E064
:1005500054DE20E030E048EC52E4C301B2018CD01C
:100560002B013C016091600070916100072E000C2E
:10057000880B990B17D19B01AC01C301B20178D054
:1005800018168CF061E080E1A8DD61E08AE0A5DD6D
:1005900060E27EE480E090E030DE60E080E19DDDBE
:1005A00060E08AE09ADD2114310409F436CF28DDB9
:1005B0002ECF809162008C278093620068EC70E0FF
:1005C00080E090E01ADE43CF052E97FB16F40094EE
:1005D0000FD057FD05D01ED007FC02D046F408C04E
:1005E00050954095309521953F4F4F4F5F4F08955F
:1005F00090958095709561957F4F8F4F9F4F08958F
:100600002BD0A59F900DB49F900DA49F800D911DA0
:1006100011240895A1E21A2EAA1BBB1BFD010DC0D7
:10062000AA1FBB1FEE1FFF1FA217B307E407F507A2
:1006300020F0A21BB30BE40BF50B661F771F881F7E
:10064000991F1A9469F760957095809590959B0114
:10065000AC01BD01CF010895A29FB001B39FC001BD
:10066000A39F01D0B29F700D811D1124911D08958B
:10067000D4D008F481E008950CD00AC102D140F032
:10068000F9D030F021F45F3F19F0EBC0511134C1C3
:10069000EEC00FD198F39923C9F35523B1F3951BFD
:1006A000550BBB27AA2762177307840738F09F5F93
:1006B0005F4F220F331F441FAA1FA9F333D00E2E02
:1006C0003AF0E0E830D091505040E695001CCAF76F
:1006D00029D0FE2F27D0660F771F881FBB1F261734
:1006E00037074807AB07B0E809F0BB0B802DBF0107
:1006F000FF2793585F4F2AF09E3F510568F0B1C025
:10070000FBC05F3FECF3983EDCF3869577956795E9
:10071000B795F7959F5FC9F7880F911D96958795B7
:1007200097F90895E1E0660F771F881FBB1F6217D6
:1007300073078407BA0720F0621B730B840BBA0B94
:10074000EE1F88F7E0950895BCD088F09F5790F091
:10075000B92F9927B751A0F0D1F0660F771F881FE6
:10076000991F1AF0BA95C9F712C0B13081F0C3D001
:10077000B1E00895C0C0672F782F8827B85F39F09F
:10078000B93FCCF3869577956795B395D9F73EF445
:1007900090958095709561957F4F8F4F9F4F0895ED
:1007A000E89409C097FB3EF490958095709561950B
:1007B0007F4F8F4F9F4F9923A9F0F92F96E9BB27C1
:1007C0009395F695879577956795B795F111F8CF3D
:1007D000FAF4BB0F11F460FF1BC06F5F7F4F8F4FA8
:1007E0009F4F16C0882311F096E911C0772321F09E
:1007F0009EE8872F762F05C0662371F096E8862F36
:1008000070E060E02AF09A95660F771F881FDAF78C
:10081000880F9695879597F90895990F0008550FB9
:10082000AA0BE0E8FEEF16161706E807F907C0F076
:1008300012161306E407F50798F0621B730B840B7E
:10084000950B39F40A2661F0232B242B252B21F458
:1008500008950A2609F4A140A6958FEF811D811DF8
:10086000089597F99F6780E870E060E008959FEF32
:1008700080EC089500240A94161617061806090637
:10088000089500240A941216130614060506089506
:10089000092E0394000C11F4882352F0BB0F40F48E
:1008A000BF2B11F460FF04C06F5F7F4F8F4F9F4FCE
:1008B000089557FD9058440F551F59F05F3F71F050
:1008C0004795880F97FB991F61F09F3F79F08795B7
:1008D0000895121613061406551FF2CF4695F1DF40
:1008E00008C0161617061806991FF1CF86957105D0
:1008F000610508940895E894BB2766277727CB0104
:1009000097F908950BD0C4CFB5DF28F0BADF18F0FF
:10091000952309F0A6CFABCF1124EECFCADFA0F309
:10092000959FD1F3950F50E0551F629FF001729F84
:10093000BB27F00DB11D639FAA27F00DB11DAA1FA3
:10094000649F6627B00DA11D661F829F2227B00DF0
:10095000A11D621F739FB00DA11D621F839FA00D7B
:10096000611D221F749F3327A00D611D231F849FCB
:10097000600D211D822F762F6A2F11249F57504022
:100980008AF0E1F088234AF0EE0FFF1FBB1F661FBD
:10099000771F881F91505040A9F79E3F510570F076
:1009A00060CFAACF5F3FECF3983EDCF38695779556
:1009B0006795B795F795E7959F5FC1F7FE2B880F71
:0E09C000911D9695879597F90895F894FFCFAD
:0209CE000F0018
:101C000012C02BC02AC029C028C027C026C025C0AA
:101C100024C023C022C021C020C01FC01EC01DC0C0
:101C20001CC01BC01AC011241FBECFE5D4E0DEBF0C
:101C3000CDBF10E0A0E6B0E0E8EEFFE102C0059005
:101C40000D92A236B107D9F711E0A2E6B0E001C0CB
:101C50001D92AA36B107E1F74FC0D2CFEF92FF92A3
:101C60000F931F93EE24FF24870113C00894E11CF7
:101C7000F11C011D111D81E0E81682E1F8068AE7DA
:101C8000080780E0180728F0E0916200F0916300F7
:101C900009955F9BEBCF8CB1992787FD90951F919C
:101CA0000F91FF90EF9008955D9BFECF8CB9089542
:101CB000D5DF803221F484E1F7DF80E1F5DF08959C
:101CC0001F93182FCBDF803231F484E1EDDF812FB9
:101CD000EBDF80E1E9DF1F9108951F93CF93DF933E
:101CE000182FC0E0D0E002C0B9DF2196C117E0F3A1
:101CF000DF91CF911F910895CFE5D4E0DEBFCDBF36
:101D0000000010BC83E389B988E18AB986E880BD08
:101D1000BD9A1092680130E2E0E0F0E02FE088B375
:101D2000832788BBCF010197F1F7215027FFF7CF19
:101D300020E12093680192DF803381F1813399F4AF
:101D40008DDF8032C1F784E1AFDF81E4ADDF86E56E
:101D5000ABDF82E5A9DF80E2A7DF89E4A5DF83E5C9
:101D6000A3DF80E5C7C0803429F478DF8638B0F07F
:101D700075DF14C0813471F471DF803811F482E0B2
:101D80001DC1813811F481E019C1823809F015C1F3
:101D900082E114C1823421F484E19FDF89DFCBCF5B
:101DA000853411F485E0F9CF8035C1F38135B1F385
:101DB0008235A1F3853539F451DF809364004EDF1D
:101DC00080936500EBCF863519F484E086DFF5C09B
:101DD000843609F093C042DF809367013FDF809330
:101DE0006601809169018E7F8093690137DF8534B8
:101DF00029F480916901816080936901C0E0D0E09D
:101E000006E610E005C02ADFF80181938F012196D4
:101E10008091660190916701C817D907A0F31EDF72
:101E2000803209F088CF8091690180FF1FC020E0D7
:101E300030E0E6E6F0E012C0A0916400B0916500E9
:101E40008191082EC5D08091640090916500019623
:101E500090936500809364002F5F3F4F80916601EF
:101E6000909167012817390738F343C0F894E19936
:101E7000FECF1127E0916400F0916500EE0FFF1F87
:101E8000C6E6D0E0809166019091670180FF01C0B5
:101E90000196103051F422D003E000935700E895EA
:101EA0001DD001E100935700E8950990199016D0D4
:101EB00001E000935700E8951395103258F0112770
:101EC0000DD005E000935700E89508D001E100939C
:101ED0005700E8953296029739F0DBCF0091570012
:101EE00001700130D9F30895103011F00296E7CF58
:101EF000112484E1D9DE80E1D7DE1DCF843709F0DB
:101F00004BC0ACDE80936701A9DE80936601A6DE3C
:101F100090916901853421F49160909369010DC01D
:101F20009E7F909369018091640090916500880F75
:101F3000991F909365008093640090DE803209F0D1
:101F4000FACE84E1B1DEC0E0D0E01EC0809169012C
:101F500080FF07C0A0916400B091650031D0802D52
:101F600008C081FD07C0E0916400F0916500E49134
:101F70008E2F9ADE80916400909165000196909377
:101F800065008093640021968091660190916701BD
:101F9000C817D907D8F2AFCF853761F45FDE80323A
:101FA00009F0C9CE84E180DE8EE17EDE83E97CDE4D
:101FB00087E0A0CF863709F0BECE80E081DEBBCEC1
:101FC000E199FECFBFBBAEBBE09A11960DB208956A
:101FD000E199FECFBFBBAEBB0DBA11960FB6F89418
:081FE000E29AE19A0FBE089598
:021FE800800077
:0400000300001C00DD
:00000001FF
